{"abi":[{"type":"constructor","inputs":[{"name":"name_","type":"string","internalType":"string"},{"name":"symbol_","type":"string","internalType":"string"},{"name":"admin","type":"address","internalType":"address"},{"name":"initialBaseUriEpoch","type":"string","internalType":"string"},{"name":"reg","type":"address","internalType":"contract ILoreEpochs"},{"name":"backendSigner_","type":"address","internalType":"address"}],"stateMutability":"nonpayable"},{"type":"function","name":"DEFAULT_ADMIN_ROLE","inputs":[],"outputs":[{"name":"","type":"bytes32","internalType":"bytes32"}],"stateMutability":"view"},{"type":"function","name":"MINTER_ROLE","inputs":[],"outputs":[{"name":"","type":"bytes32","internalType":"bytes32"}],"stateMutability":"view"},{"type":"function","name":"REGISTRY_ROLE","inputs":[],"outputs":[{"name":"","type":"bytes32","internalType":"bytes32"}],"stateMutability":"view"},{"type":"function","name":"TRANSFER_TYPEHASH","inputs":[],"outputs":[{"name":"","type":"bytes32","internalType":"bytes32"}],"stateMutability":"view"},{"type":"function","name":"approve","inputs":[{"name":"to","type":"address","internalType":"address"},{"name":"tokenId","type":"uint256","internalType":"uint256"}],"outputs":[],"stateMutability":"nonpayable"},{"type":"function","name":"backendSigner","inputs":[],"outputs":[{"name":"","type":"address","internalType":"address"}],"stateMutability":"view"},{"type":"function","name":"balanceOf","inputs":[{"name":"owner","type":"address","internalType":"address"}],"outputs":[{"name":"","type":"uint256","internalType":"uint256"}],"stateMutability":"view"},{"type":"function","name":"baseUriEpoch","inputs":[],"outputs":[{"name":"","type":"string","internalType":"string"}],"stateMutability":"view"},{"type":"function","name":"batchMint","inputs":[{"name":"to","type":"address[]","internalType":"address[]"},{"name":"tokenIds","type":"uint256[]","internalType":"uint256[]"}],"outputs":[],"stateMutability":"nonpayable"},{"type":"function","name":"completedTransfers","inputs":[{"name":"","type":"bytes32","internalType":"bytes32"}],"outputs":[{"name":"","type":"bool","internalType":"bool"}],"stateMutability":"view"},{"type":"function","name":"eip712Domain","inputs":[],"outputs":[{"name":"fields","type":"bytes1","internalType":"bytes1"},{"name":"name","type":"string","internalType":"string"},{"name":"version","type":"string","internalType":"string"},{"name":"chainId","type":"uint256","internalType":"uint256"},{"name":"verifyingContract","type":"address","internalType":"address"},{"name":"salt","type":"bytes32","internalType":"bytes32"},{"name":"extensions","type":"uint256[]","internalType":"uint256[]"}],"stateMutability":"view"},{"type":"function","name":"emitBatchMetadataUpdate","inputs":[{"name":"fromTokenId","type":"uint256","internalType":"uint256"},{"name":"toTokenId","type":"uint256","internalType":"uint256"}],"outputs":[],"stateMutability":"nonpayable"},{"type":"function","name":"getApproved","inputs":[{"name":"tokenId","type":"uint256","internalType":"uint256"}],"outputs":[{"name":"","type":"address","internalType":"address"}],"stateMutability":"view"},{"type":"function","name":"getRoleAdmin","inputs":[{"name":"role","type":"bytes32","internalType":"bytes32"}],"outputs":[{"name":"","type":"bytes32","internalType":"bytes32"}],"stateMutability":"view"},{"type":"function","name":"grantRole","inputs":[{"name":"role","type":"bytes32","internalType":"bytes32"},{"name":"account","type":"address","internalType":"address"}],"outputs":[],"stateMutability":"nonpayable"},{"type":"function","name":"hasRole","inputs":[{"name":"role","type":"bytes32","internalType":"bytes32"},{"name":"account","type":"address","internalType":"address"}],"outputs":[{"name":"","type":"bool","internalType":"bool"}],"stateMutability":"view"},{"type":"function","name":"isApprovedForAll","inputs":[{"name":"owner","type":"address","internalType":"address"},{"name":"operator","type":"address","internalType":"address"}],"outputs":[{"name":"","type":"bool","internalType":"bool"}],"stateMutability":"view"},{"type":"function","name":"loreRegistry","inputs":[],"outputs":[{"name":"","type":"address","internalType":"contract ILoreEpochs"}],"stateMutability":"view"},{"type":"function","name":"mint","inputs":[{"name":"to","type":"address","internalType":"address"},{"name":"tokenId","type":"uint256","internalType":"uint256"}],"outputs":[],"stateMutability":"nonpayable"},{"type":"function","name":"name","inputs":[],"outputs":[{"name":"","type":"string","internalType":"string"}],"stateMutability":"view"},{"type":"function","name":"ownerOf","inputs":[{"name":"tokenId","type":"uint256","internalType":"uint256"}],"outputs":[{"name":"","type":"address","internalType":"address"}],"stateMutability":"view"},{"type":"function","name":"renounceRole","inputs":[{"name":"role","type":"bytes32","internalType":"bytes32"},{"name":"account","type":"address","internalType":"address"}],"outputs":[],"stateMutability":"nonpayable"},{"type":"function","name":"revokeRole","inputs":[{"name":"role","type":"bytes32","internalType":"bytes32"},{"name":"account","type":"address","internalType":"address"}],"outputs":[],"stateMutability":"nonpayable"},{"type":"function","name":"safeTransferFrom","inputs":[{"name":"from","type":"address","internalType":"address"},{"name":"to","type":"address","internalType":"address"},{"name":"tokenId","type":"uint256","internalType":"uint256"}],"outputs":[],"stateMutability":"nonpayable"},{"type":"function","name":"safeTransferFrom","inputs":[{"name":"from","type":"address","internalType":"address"},{"name":"to","type":"address","internalType":"address"},{"name":"tokenId","type":"uint256","internalType":"uint256"},{"name":"data","type":"bytes","internalType":"bytes"}],"outputs":[],"stateMutability":"nonpayable"},{"type":"function","name":"setApprovalForAll","inputs":[{"name":"operator","type":"address","internalType":"address"},{"name":"approved","type":"bool","internalType":"bool"}],"outputs":[],"stateMutability":"nonpayable"},{"type":"function","name":"setBackendSigner","inputs":[{"name":"newSigner","type":"address","internalType":"address"}],"outputs":[],"stateMutability":"nonpayable"},{"type":"function","name":"setBaseUriEpoch","inputs":[{"name":"newBase","type":"string","internalType":"string"}],"outputs":[],"stateMutability":"nonpayable"},{"type":"function","name":"setLoreRegistry","inputs":[{"name":"reg","type":"address","internalType":"contract ILoreEpochs"}],"outputs":[],"stateMutability":"nonpayable"},{"type":"function","name":"setTransfersEnabled","inputs":[{"name":"enabled","type":"bool","internalType":"bool"}],"outputs":[],"stateMutability":"nonpayable"},{"type":"function","name":"supportsInterface","inputs":[{"name":"iid","type":"bytes4","internalType":"bytes4"}],"outputs":[{"name":"","type":"bool","internalType":"bool"}],"stateMutability":"view"},{"type":"function","name":"symbol","inputs":[],"outputs":[{"name":"","type":"string","internalType":"string"}],"stateMutability":"view"},{"type":"function","name":"tokenByIndex","inputs":[{"name":"index","type":"uint256","internalType":"uint256"}],"outputs":[{"name":"","type":"uint256","internalType":"uint256"}],"stateMutability":"view"},{"type":"function","name":"tokenOfOwnerByIndex","inputs":[{"name":"owner","type":"address","internalType":"address"},{"name":"index","type":"uint256","internalType":"uint256"}],"outputs":[{"name":"","type":"uint256","internalType":"uint256"}],"stateMutability":"view"},{"type":"function","name":"tokenURI","inputs":[{"name":"tokenId","type":"uint256","internalType":"uint256"}],"outputs":[{"name":"","type":"string","internalType":"string"}],"stateMutability":"view"},{"type":"function","name":"tokenURIAtEpoch","inputs":[{"name":"tokenId","type":"uint256","internalType":"uint256"},{"name":"epochId","type":"uint64","internalType":"uint64"}],"outputs":[{"name":"","type":"string","internalType":"string"}],"stateMutability":"view"},{"type":"function","name":"tokensOfOwner","inputs":[{"name":"owner","type":"address","internalType":"address"}],"outputs":[{"name":"","type":"uint256[]","internalType":"uint256[]"}],"stateMutability":"view"},{"type":"function","name":"totalSupply","inputs":[],"outputs":[{"name":"","type":"uint256","internalType":"uint256"}],"stateMutability":"view"},{"type":"function","name":"transferFrom","inputs":[{"name":"from","type":"address","internalType":"address"},{"name":"to","type":"address","internalType":"address"},{"name":"tokenId","type":"uint256","internalType":"uint256"}],"outputs":[],"stateMutability":"nonpayable"},{"type":"function","name":"transferWithSignature","inputs":[{"name":"from","type":"address","internalType":"address"},{"name":"to","type":"address","internalType":"address"},{"name":"tokenId","type":"uint256","internalType":"uint256"},{"name":"nonce","type":"uint256","internalType":"uint256"},{"name":"deadline","type":"uint256","internalType":"uint256"},{"name":"signature","type":"bytes","internalType":"bytes"}],"outputs":[],"stateMutability":"nonpayable"},{"type":"function","name":"transfersEnabled","inputs":[],"outputs":[{"name":"","type":"bool","internalType":"bool"}],"stateMutability":"view"},{"type":"event","name":"Approval","inputs":[{"name":"owner","type":"address","indexed":true,"internalType":"address"},{"name":"approved","type":"address","indexed":true,"internalType":"address"},{"name":"tokenId","type":"uint256","indexed":true,"internalType":"uint256"}],"anonymous":false},{"type":"event","name":"ApprovalForAll","inputs":[{"name":"owner","type":"address","indexed":true,"internalType":"address"},{"name":"operator","type":"address","indexed":true,"internalType":"address"},{"name":"approved","type":"bool","indexed":false,"internalType":"bool"}],"anonymous":false},{"type":"event","name":"BatchMetadataUpdate","inputs":[{"name":"_fromTokenId","type":"uint256","indexed":false,"internalType":"uint256"},{"name":"_toTokenId","type":"uint256","indexed":false,"internalType":"uint256"}],"anonymous":false},{"type":"event","name":"EIP712DomainChanged","inputs":[],"anonymous":false},{"type":"event","name":"MetadataUpdate","inputs":[{"name":"_tokenId","type":"uint256","indexed":false,"internalType":"uint256"}],"anonymous":false},{"type":"event","name":"RoleAdminChanged","inputs":[{"name":"role","type":"bytes32","indexed":true,"internalType":"bytes32"},{"name":"previousAdminRole","type":"bytes32","indexed":true,"internalType":"bytes32"},{"name":"newAdminRole","type":"bytes32","indexed":true,"internalType":"bytes32"}],"anonymous":false},{"type":"event","name":"RoleGranted","inputs":[{"name":"role","type":"bytes32","indexed":true,"internalType":"bytes32"},{"name":"account","type":"address","indexed":true,"internalType":"address"},{"name":"sender","type":"address","indexed":true,"internalType":"address"}],"anonymous":false},{"type":"event","name":"RoleRevoked","inputs":[{"name":"role","type":"bytes32","indexed":true,"internalType":"bytes32"},{"name":"account","type":"address","indexed":true,"internalType":"address"},{"name":"sender","type":"address","indexed":true,"internalType":"address"}],"anonymous":false},{"type":"event","name":"SetBackendSigner","inputs":[{"name":"newSigner","type":"address","indexed":true,"internalType":"address"}],"anonymous":false},{"type":"event","name":"SetBaseUriEpoch","inputs":[{"name":"newBaseUriEpoch","type":"string","indexed":false,"internalType":"string"}],"anonymous":false},{"type":"event","name":"SetLoreRegistry","inputs":[{"name":"reg","type":"address","indexed":true,"internalType":"address"}],"anonymous":false},{"type":"event","name":"SetTransfersEnabled","inputs":[{"name":"enabled","type":"bool","indexed":false,"internalType":"bool"}],"anonymous":false},{"type":"event","name":"Transfer","inputs":[{"name":"from","type":"address","indexed":true,"internalType":"address"},{"name":"to","type":"address","indexed":true,"internalType":"address"},{"name":"tokenId","type":"uint256","indexed":true,"internalType":"uint256"}],"anonymous":false},{"type":"event","name":"TransferWithSignature","inputs":[{"name":"from","type":"address","indexed":true,"internalType":"address"},{"name":"to","type":"address","indexed":true,"internalType":"address"},{"name":"tokenId","type":"uint256","indexed":true,"internalType":"uint256"}],"anonymous":false},{"type":"error","name":"InvalidShortString","inputs":[]},{"type":"error","name":"StringTooLong","inputs":[{"name":"str","type":"string","internalType":"string"}]}],"bytecode":{"object":"0x6101606040523480156200001257600080fd5b506040516200807538038062008075833981810160405281019062000038919062000968565b856040518060400160405280600381526020017f312e3000000000000000000000000000000000000000000000000000000000008152508787816000908162000082919062000cac565b50806001908162000094919062000cac565b505050620000b2600b836200049560201b620021f11790919060201c565b6101208181525050620000d5600c826200049560201b620021f11790919060201c565b6101408181525050818051906020012060e08181525050808051906020012061010081815250504660a0818152505062000114620004f260201b60201c565b608081815250503073ffffffffffffffffffffffffffffffffffffffff1660c08173ffffffffffffffffffffffffffffffffffffffff16815250505050600086510362000198576040517f08c379a00000000000000000000000000000000000000000000000000000000081526004016200018f9062000df4565b60405180910390fd5b6000855103620001df576040517f08c379a0000000000000000000000000000000000000000000000000000000008152600401620001d69062000e66565b60405180910390fd5b600073ffffffffffffffffffffffffffffffffffffffff168473ffffffffffffffffffffffffffffffffffffffff160362000251576040517f08c379a0000000000000000000000000000000000000000000000000000000008152600401620002489062000ed8565b60405180910390fd5b600083510362000298576040517f08c379a00000000000000000000000000000000000000000000000000000000081526004016200028f9062000f4a565b60405180910390fd5b600073ffffffffffffffffffffffffffffffffffffffff168273ffffffffffffffffffffffffffffffffffffffff16036200030a576040517f08c379a0000000000000000000000000000000000000000000000000000000008152600401620003019062000fbc565b60405180910390fd5b600073ffffffffffffffffffffffffffffffffffffffff168173ffffffffffffffffffffffffffffffffffffffff16036200037c576040517f08c379a000000000000000000000000000000000000000000000000000000000815260040162000373906200102e565b60405180910390fd5b620003916000801b856200054f60201b60201c565b620003c37f9f2df0fed2c77648de5860a4cc508cd0818c85b8b8a1ab4ceeef8d981c8956a6856200054f60201b60201c565b620003f57fc2979137d1774e40fe2638d355bf7a7b092be4c67f242aad1655e1e27f9df9cc856200054f60201b60201c565b82600d908162000406919062000cac565b5081600e60006101000a81548173ffffffffffffffffffffffffffffffffffffffff021916908373ffffffffffffffffffffffffffffffffffffffff16021790555080600f60006101000a81548173ffffffffffffffffffffffffffffffffffffffff021916908373ffffffffffffffffffffffffffffffffffffffff160217905550505050505050620011f1565b6000602083511015620004bb57620004b3836200064160201b60201c565b9050620004ec565b82620004d283620006ae60201b620022351760201c565b6000019081620004e3919062000cac565b5060ff60001b90505b92915050565b60007f8b73c3c69bb8fe3d512ecc4cf759cc79239f7b179b0ffacaa9a75d522b39400f60e051610100514630604051602001620005349594939291906200108d565b60405160208183030381529060405280519060200120905090565b620005618282620006b860201b60201c565b6200063d576001600a600084815260200190815260200160002060000160008373ffffffffffffffffffffffffffffffffffffffff1673ffffffffffffffffffffffffffffffffffffffff16815260200190815260200160002060006101000a81548160ff021916908315150217905550620005e26200072360201b60201c565b73ffffffffffffffffffffffffffffffffffffffff168173ffffffffffffffffffffffffffffffffffffffff16837f2f8788117e7eff1d82e926ec794901d17c78024a50270940304540a733656f0d60405160405180910390a45b5050565b600080829050601f815111156200069157826040517f305a27a90000000000000000000000000000000000000000000000000000000081526004016200068891906200112b565b60405180910390fd5b8051816200069f9062001181565b60001c1760001b915050919050565b6000819050919050565b6000600a600084815260200190815260200160002060000160008373ffffffffffffffffffffffffffffffffffffffff1673ffffffffffffffffffffffffffffffffffffffff16815260200190815260200160002060009054906101000a900460ff16905092915050565b600033905090565b6000604051905090565b600080fd5b600080fd5b600080fd5b600080fd5b6000601f19601f8301169050919050565b7f4e487b7100000000000000000000000000000000000000000000000000000000600052604160045260246000fd5b620007948262000749565b810181811067ffffffffffffffff82111715620007b657620007b56200075a565b5b80604052505050565b6000620007cb6200072b565b9050620007d9828262000789565b919050565b600067ffffffffffffffff821115620007fc57620007fb6200075a565b5b620008078262000749565b9050602081019050919050565b60005b838110156200083457808201518184015260208101905062000817565b60008484015250505050565b6000620008576200085184620007de565b620007bf565b90508281526020810184848401111562000876576200087562000744565b5b6200088384828562000814565b509392505050565b600082601f830112620008a357620008a26200073f565b5b8151620008b584826020860162000840565b91505092915050565b600073ffffffffffffffffffffffffffffffffffffffff82169050919050565b6000620008eb82620008be565b9050919050565b620008fd81620008de565b81146200090957600080fd5b50565b6000815190506200091d81620008f2565b92915050565b60006200093082620008de565b9050919050565b620009428162000923565b81146200094e57600080fd5b50565b600081519050620009628162000937565b92915050565b60008060008060008060c0878903121562000988576200098762000735565b5b600087015167ffffffffffffffff811115620009a957620009a86200073a565b5b620009b789828a016200088b565b965050602087015167ffffffffffffffff811115620009db57620009da6200073a565b5b620009e989828a016200088b565b9550506040620009fc89828a016200090c565b945050606087015167ffffffffffffffff81111562000a205762000a1f6200073a565b5b62000a2e89828a016200088b565b935050608062000a4189828a0162000951565b92505060a062000a5489828a016200090c565b9150509295509295509295565b600081519050919050565b7f4e487b7100000000000000000000000000000000000000000000000000000000600052602260045260246000fd5b6000600282049050600182168062000ab457607f821691505b60208210810362000aca5762000ac962000a6c565b5b50919050565b60008190508160005260206000209050919050565b60006020601f8301049050919050565b600082821b905092915050565b60006008830262000b347fffffffffffffffffffffffffffffffffffffffffffffffffffffffffffffffff8262000af5565b62000b40868362000af5565b95508019841693508086168417925050509392505050565b6000819050919050565b6000819050919050565b600062000b8d62000b8762000b818462000b58565b62000b62565b62000b58565b9050919050565b6000819050919050565b62000ba98362000b6c565b62000bc162000bb88262000b94565b84845462000b02565b825550505050565b600090565b62000bd862000bc9565b62000be581848462000b9e565b505050565b5b8181101562000c0d5762000c0160008262000bce565b60018101905062000beb565b5050565b601f82111562000c5c5762000c268162000ad0565b62000c318462000ae5565b8101602085101562000c41578190505b62000c5962000c508562000ae5565b83018262000bea565b50505b505050565b600082821c905092915050565b600062000c816000198460080262000c61565b1980831691505092915050565b600062000c9c838362000c6e565b9150826002028217905092915050565b62000cb78262000a61565b67ffffffffffffffff81111562000cd35762000cd26200075a565b5b62000cdf825462000a9b565b62000cec82828562000c11565b600060209050601f83116001811462000d24576000841562000d0f578287015190505b62000d1b858262000c8e565b86555062000d8b565b601f19841662000d348662000ad0565b60005b8281101562000d5e5784890151825560018201915060208501945060208101905062000d37565b8683101562000d7e578489015162000d7a601f89168262000c6e565b8355505b6001600288020188555050505b505050505050565b600082825260208201905092915050565b7f6e616d655f3a20656d7074790000000000000000000000000000000000000000600082015250565b600062000ddc600c8362000d93565b915062000de98262000da4565b602082019050919050565b6000602082019050818103600083015262000e0f8162000dcd565b9050919050565b7f73796d626f6c5f3a20656d707479000000000000000000000000000000000000600082015250565b600062000e4e600e8362000d93565b915062000e5b8262000e16565b602082019050919050565b6000602082019050818103600083015262000e818162000e3f565b9050919050565b7f61646d696e3a2061646472657373283029000000000000000000000000000000600082015250565b600062000ec060118362000d93565b915062000ecd8262000e88565b602082019050919050565b6000602082019050818103600083015262000ef38162000eb1565b9050919050565b7f696e697469616c4261736555726945706f63683a20656d707479000000000000600082015250565b600062000f32601a8362000d93565b915062000f3f8262000efa565b602082019050919050565b6000602082019050818103600083015262000f658162000f23565b9050919050565b7f7265673a20616464726573732830290000000000000000000000000000000000600082015250565b600062000fa4600f8362000d93565b915062000fb18262000f6c565b602082019050919050565b6000602082019050818103600083015262000fd78162000f95565b9050919050565b7f6261636b656e645369676e65725f3a2061646472657373283029000000000000600082015250565b600062001016601a8362000d93565b9150620010238262000fde565b602082019050919050565b60006020820190508181036000830152620010498162001007565b9050919050565b6000819050919050565b620010658162001050565b82525050565b620010768162000b58565b82525050565b6200108781620008de565b82525050565b600060a082019050620010a460008301886200105a565b620010b360208301876200105a565b620010c260408301866200105a565b620010d160608301856200106b565b620010e060808301846200107c565b9695505050505050565b6000620010f78262000a61565b62001103818562000d93565b93506200111581856020860162000814565b620011208162000749565b840191505092915050565b60006020820190508181036000830152620011478184620010ea565b905092915050565b600081519050919050565b6000819050602082019050919050565b600062001178825162001050565b80915050919050565b60006200118e826200114f565b826200119a846200115a565b9050620011a7816200116a565b92506020821015620011ea57620011e57fffffffffffffffffffffffffffffffffffffffffffffffffffffffffffffffff8360200360080262000af5565b831692505b5050919050565b60805160a05160c05160e051610100516101205161014051616e296200124c6000396000611b1c01526000611ae801526000613d0201526000613ce101526000612ffd015260006130530152600061307c0152616e296000f3fe608060405234801561001057600080fd5b50600436106102525760003560e01c806365d65e8611610146578063a22cb465116100c3578063bef97c8711610087578063bef97c871461070d578063c87b56dd1461072b578063d53913931461075b578063d547741f14610779578063e985e9c514610795578063f45110d4146107c557610252565b8063a22cb4651461067d578063a483011414610699578063a4b6db75146106b5578063ab53db73146106d3578063b88d4fde146106f157610252565b806384b0196e1161010a57806384b0196e146105bd57806391d14854146105e1578063927dd2401461061157806395d89b4114610641578063a217fddf1461065f57610252565b806365d65e8614610507578063685731071461052557806370a082311461054157806379b06f44146105715780638462151c1461058d57610252565b80632f745c59116101d457806342842e0e1161019857806342842e0e1461045157806342f1e8791461046d5780634f6ccce71461048b57806350a15a25146104bb5780636352211e146104d757610252565b80632f745c59146103b157806332371c89146103e157806336568abe146103fd57806336f956701461041957806340c10f191461043557610252565b806318160ddd1161021b57806318160ddd1461030f57806323b872dd1461032d578063248a9ca31461034957806326b9ce13146103795780632f2ff15d1461039557610252565b8062bf26f41461025757806301ffc9a71461027557806306fdde03146102a5578063081812fc146102c3578063095ea7b3146102f3575b600080fd5b61025f6107f5565b60405161026c9190614236565b60405180910390f35b61028f600480360381019061028a91906142bd565b610819565b60405161029c9190614305565b60405180910390f35b6102ad610873565b6040516102ba91906143b0565b60405180910390f35b6102dd60048036038101906102d89190614408565b610905565b6040516102ea9190614476565b60405180910390f35b61030d600480360381019061030891906144bd565b61094b565b005b610317610a62565b604051610324919061450c565b60405180910390f35b61034760048036038101906103429190614527565b610a6f565b005b610363600480360381019061035e91906145a6565b610acf565b6040516103709190614236565b60405180910390f35b610393600480360381019061038e91906145ff565b610aef565b005b6103af60048036038101906103aa919061462c565b610ba6565b005b6103cb60048036038101906103c691906144bd565b610bc7565b6040516103d8919061450c565b60405180910390f35b6103fb60048036038101906103f691906146aa565b610c6c565b005b6104176004803603810190610412919061462c565b610e1d565b005b610433600480360381019061042e91906146d7565b610ea0565b005b61044f600480360381019061044a91906144bd565b611034565b005b61046b60048036038101906104669190614527565b611130565b005b610475611150565b6040516104829190614236565b60405180910390f35b6104a560048036038101906104a09190614408565b611174565b6040516104b2919061450c565b60405180910390f35b6104d560048036038101906104d09190614769565b6111e5565b005b6104f160048036038101906104ec9190614408565b611517565b6040516104fe9190614476565b60405180910390f35b61050f61159d565b60405161051c9190614476565b60405180910390f35b61053f600480360381019061053a91906148c4565b6115c3565b005b61055b600480360381019061055691906146d7565b61181f565b604051610568919061450c565b60405180910390f35b61058b6004803603810190610586919061499b565b6118d6565b005b6105a760048036038101906105a291906146d7565b611a27565b6040516105b49190614aa6565b60405180910390f35b6105c5611ad5565b6040516105d89796959493929190614b03565b60405180910390f35b6105fb60048036038101906105f6919061462c565b611bd7565b6040516106089190614305565b60405180910390f35b61062b600480360381019061062691906145a6565b611c42565b6040516106389190614305565b60405180910390f35b610649611c62565b60405161065691906143b0565b60405180910390f35b610667611cf4565b6040516106749190614236565b60405180910390f35b61069760048036038101906106929190614b87565b611cfb565b005b6106b360048036038101906106ae9190614bc7565b611d11565b005b6106bd611d79565b6040516106ca91906143b0565b60405180910390f35b6106db611e07565b6040516106e89190614c66565b60405180910390f35b61070b60048036038101906107069190614db1565b611e2d565b005b610715611e8f565b6040516107229190614305565b60405180910390f35b61074560048036038101906107409190614408565b611ea2565b60405161075291906143b0565b60405180910390f35b610763611f1e565b6040516107709190614236565b60405180910390f35b610793600480360381019061078e919061462c565b611f42565b005b6107af60048036038101906107aa9190614e34565b611f63565b6040516107bc9190614305565b60405180910390f35b6107df60048036038101906107da9190614eb4565b611ff7565b6040516107ec91906143b0565b60405180910390f35b7fbf94c0f8a11ffd151af4256fe0cc1828fde2d50f90b4a459b429451c707e616981565b6000807bffffffffffffffffffffffffffffffffffffffffffffffffffffffff1916827bffffffffffffffffffffffffffffffffffffffffffffffffffffffff1916148061086c575061086b8261223f565b5b9050919050565b60606000805461088290614f23565b80601f01602080910402602001604051908101604052809291908181526020018280546108ae90614f23565b80156108fb5780601f106108d0576101008083540402835291602001916108fb565b820191906000526020600020905b8154815290600101906020018083116108de57829003601f168201915b5050505050905090565b6000610910826122b9565b6004600083815260200190815260200160002060009054906101000a900473ffffffffffffffffffffffffffffffffffffffff169050919050565b600061095682611517565b90508073ffffffffffffffffffffffffffffffffffffffff168373ffffffffffffffffffffffffffffffffffffffff16036109c6576040517f08c379a00000000000000000000000000000000000000000000000000000000081526004016109bd90614fc6565b60405180910390fd5b8073ffffffffffffffffffffffffffffffffffffffff166109e5612304565b73ffffffffffffffffffffffffffffffffffffffff161480610a145750610a1381610a0e612304565b611f63565b5b610a53576040517f08c379a0000000000000000000000000000000000000000000000000000000008152600401610a4a90615058565b60405180910390fd5b610a5d838361230c565b505050565b6000600880549050905090565b610a80610a7a612304565b826123c5565b610abf576040517f08c379a0000000000000000000000000000000000000000000000000000000008152600401610ab6906150ea565b60405180910390fd5b610aca83838361245a565b505050565b6000600a6000838152602001908152602001600020600101549050919050565b6000801b610afc81612753565b601160009054906101000a900460ff16151582151503610b51576040517f08c379a0000000000000000000000000000000000000000000000000000000008152600401610b4890615156565b60405180910390fd5b81601160006101000a81548160ff0219169083151502179055507ffc7bcb731a10107e4756af5fe632c6890a79e97b4c148e8f379d583d76bd5a8282604051610b9a9190614305565b60405180910390a15050565b610baf82610acf565b610bb881612753565b610bc28383612767565b505050565b6000610bd28361181f565b8210610c13576040517f08c379a0000000000000000000000000000000000000000000000000000000008152600401610c0a906151e8565b60405180910390fd5b600660008473ffffffffffffffffffffffffffffffffffffffff1673ffffffffffffffffffffffffffffffffffffffff168152602001908152602001600020600083815260200190815260200160002054905092915050565b7fc2979137d1774e40fe2638d355bf7a7b092be4c67f242aad1655e1e27f9df9cc610c9681612753565b600073ffffffffffffffffffffffffffffffffffffffff168273ffffffffffffffffffffffffffffffffffffffff1603610d05576040517f08c379a0000000000000000000000000000000000000000000000000000000008152600401610cfc90615254565b60405180910390fd5b600e60009054906101000a900473ffffffffffffffffffffffffffffffffffffffff1673ffffffffffffffffffffffffffffffffffffffff168273ffffffffffffffffffffffffffffffffffffffff1603610d95576040517f08c379a0000000000000000000000000000000000000000000000000000000008152600401610d8c906152c0565b60405180910390fd5b81600e60006101000a81548173ffffffffffffffffffffffffffffffffffffffff021916908373ffffffffffffffffffffffffffffffffffffffff1602179055508173ffffffffffffffffffffffffffffffffffffffff167f2026873d174d5673db3d86a448d41bfe037098cdc97c5d19eabcc3a4c844175c60405160405180910390a25050565b610e25612304565b73ffffffffffffffffffffffffffffffffffffffff168173ffffffffffffffffffffffffffffffffffffffff1614610e92576040517f08c379a0000000000000000000000000000000000000000000000000000000008152600401610e8990615352565b60405180910390fd5b610e9c8282612848565b5050565b6000801b610ead81612753565b600073ffffffffffffffffffffffffffffffffffffffff168273ffffffffffffffffffffffffffffffffffffffff1603610f1c576040517f08c379a0000000000000000000000000000000000000000000000000000000008152600401610f13906153be565b60405180910390fd5b600f60009054906101000a900473ffffffffffffffffffffffffffffffffffffffff1673ffffffffffffffffffffffffffffffffffffffff168273ffffffffffffffffffffffffffffffffffffffff1603610fac576040517f08c379a0000000000000000000000000000000000000000000000000000000008152600401610fa39061542a565b60405180910390fd5b81600f60006101000a81548173ffffffffffffffffffffffffffffffffffffffff021916908373ffffffffffffffffffffffffffffffffffffffff1602179055508173ffffffffffffffffffffffffffffffffffffffff167f51ad1d0f5aa4dce01cdbd1ffce145596092a73bcb73db321a014518db8b55b2260405160405180910390a25050565b7f9f2df0fed2c77648de5860a4cc508cd0818c85b8b8a1ab4ceeef8d981c8956a661105e81612753565b600082036110a1576040517f08c379a000000000000000000000000000000000000000000000000000000000815260040161109890615496565b60405180910390fd5b6110aa8261292a565b156110ea576040517f08c379a00000000000000000000000000000000000000000000000000000000081526004016110e190615502565b60405180910390fd5b6110f4838361296b565b7ff8e1a15aba9398e019f0b49df1a4fde98ee17ae345cb5f6b5e2c27f5033e8ce782604051611123919061450c565b60405180910390a1505050565b61114b83838360405180602001604052806000815250611e2d565b505050565b7fc2979137d1774e40fe2638d355bf7a7b092be4c67f242aad1655e1e27f9df9cc81565b600061117e610a62565b82106111bf576040517f08c379a00000000000000000000000000000000000000000000000000000000081526004016111b690615594565b60405180910390fd5b600882815481106111d3576111d26155b4565b5b90600052602060002001549050919050565b82421115611228576040517f08c379a000000000000000000000000000000000000000000000000000000000815260040161121f9061562f565b60405180910390fd5b8673ffffffffffffffffffffffffffffffffffffffff1661124886611517565b73ffffffffffffffffffffffffffffffffffffffff161461129e576040517f08c379a00000000000000000000000000000000000000000000000000000000081526004016112959061569b565b60405180910390fd5b60007fbf94c0f8a11ffd151af4256fe0cc1828fde2d50f90b4a459b429451c707e616988888888886040516020016112db969594939291906156bb565b60405160208183030381529060405280519060200120905060006112fe82612989565b90506010600082815260200190815260200160002060009054906101000a900460ff1615611361576040517f08c379a000000000000000000000000000000000000000000000000000000000815260040161135890615768565b60405180910390fd5b60006113b18286868080601f016020809104026020016040519081016040528093929190818152602001838380828437600081840152601f19601f820116905080830192505050505050506129a3565b9050600f60009054906101000a900473ffffffffffffffffffffffffffffffffffffffff1673ffffffffffffffffffffffffffffffffffffffff168173ffffffffffffffffffffffffffffffffffffffff1614611443576040517f08c379a000000000000000000000000000000000000000000000000000000000815260040161143a906157d4565b60405180910390fd5b60016010600084815260200190815260200160002060006101000a81548160ff0219169083151502179055506001601160016101000a81548160ff0219169083151502179055506114958a8a8a61245a565b6000601160016101000a81548160ff021916908315150217905550878973ffffffffffffffffffffffffffffffffffffffff168b73ffffffffffffffffffffffffffffffffffffffff167fd38007d6bf00d2d48f566b2cdade5d437a07d4dde2e17e5dfac35524dfdf80fe60405160405180910390a450505050505050505050565b600080611523836129ca565b9050600073ffffffffffffffffffffffffffffffffffffffff168173ffffffffffffffffffffffffffffffffffffffff1603611594576040517f08c379a000000000000000000000000000000000000000000000000000000000815260040161158b90615840565b60405180910390fd5b80915050919050565b600f60009054906101000a900473ffffffffffffffffffffffffffffffffffffffff1681565b7f9f2df0fed2c77648de5860a4cc508cd0818c85b8b8a1ab4ceeef8d981c8956a66115ed81612753565b60008585905003611633576040517f08c379a000000000000000000000000000000000000000000000000000000000815260040161162a906158ac565b60405180910390fd5b84849050838390501461167b576040517f08c379a000000000000000000000000000000000000000000000000000000000815260040161167290615918565b60405180910390fd5b60005b8585905081101561179c57600084848381811061169e5761169d6155b4565b5b90506020020135036116e5576040517f08c379a00000000000000000000000000000000000000000000000000000000081526004016116dc90615496565b60405180910390fd5b6117078484838181106116fb576116fa6155b4565b5b9050602002013561292a565b15611747576040517f08c379a000000000000000000000000000000000000000000000000000000000815260040161173e90615502565b60405180910390fd5b61179186868381811061175d5761175c6155b4565b5b905060200201602081019061177291906146d7565b858584818110611785576117846155b4565b5b9050602002013561296b565b80600101905061167e565b507f6bd5c950a8d8df17f772f5af37cb3655737899cbf903264b9795592da439661c838360008181106117d2576117d16155b4565b5b9050602002013584846001878790506117eb9190615967565b8181106117fb576117fa6155b4565b5b9050602002013560405161181092919061599b565b60405180910390a15050505050565b60008073ffffffffffffffffffffffffffffffffffffffff168273ffffffffffffffffffffffffffffffffffffffff160361188f576040517f08c379a000000000000000000000000000000000000000000000000000000000815260040161188690615a36565b60405180910390fd5b600360008373ffffffffffffffffffffffffffffffffffffffff1673ffffffffffffffffffffffffffffffffffffffff168152602001908152602001600020549050919050565b7fc2979137d1774e40fe2638d355bf7a7b092be4c67f242aad1655e1e27f9df9cc61190081612753565b60008383905003611946576040517f08c379a000000000000000000000000000000000000000000000000000000000815260040161193d90615aa2565b60405180910390fd5b600d6040516020016119589190615b65565b604051602081830303815290604052805190602001208383604051602001611981929190615ba1565b60405160208183030381529060405280519060200120036119d7576040517f08c379a00000000000000000000000000000000000000000000000000000000081526004016119ce90615c06565b60405180910390fd5b8282600d91826119e8929190615dbe565b507f1ccf92739cec43ec19e37553ff1090a23dc268d565f9d8241c3aa1e79f6c4cfb8383604051611a1a929190615ebb565b60405180910390a1505050565b60606000611a348361181f565b905060008167ffffffffffffffff811115611a5257611a51614c86565b5b604051908082528060200260200182016040528015611a805781602001602082028036833780820191505090505b50905060005b82811015611aca57611a988582610bc7565b828281518110611aab57611aaa6155b4565b5b6020026020010181815250508080611ac290615edf565b915050611a86565b508092505050919050565b600060608060008060006060611b15600b7f0000000000000000000000000000000000000000000000000000000000000000612a0790919063ffffffff16565b611b49600c7f0000000000000000000000000000000000000000000000000000000000000000612a0790919063ffffffff16565b46306000801b600067ffffffffffffffff811115611b6a57611b69614c86565b5b604051908082528060200260200182016040528015611b985781602001602082028036833780820191505090505b507f0f00000000000000000000000000000000000000000000000000000000000000959493929190965096509650965096509650965090919293949596565b6000600a600084815260200190815260200160002060000160008373ffffffffffffffffffffffffffffffffffffffff1673ffffffffffffffffffffffffffffffffffffffff16815260200190815260200160002060009054906101000a900460ff16905092915050565b60106020528060005260406000206000915054906101000a900460ff1681565b606060018054611c7190614f23565b80601f0160208091040260200160405190810160405280929190818152602001828054611c9d90614f23565b8015611cea5780601f10611cbf57610100808354040283529160200191611cea565b820191906000526020600020905b815481529060010190602001808311611ccd57829003601f168201915b5050505050905090565b6000801b81565b611d0d611d06612304565b8383612ab7565b5050565b7fc2979137d1774e40fe2638d355bf7a7b092be4c67f242aad1655e1e27f9df9cc611d3b81612753565b7f6bd5c950a8d8df17f772f5af37cb3655737899cbf903264b9795592da439661c8383604051611d6c92919061599b565b60405180910390a1505050565b600d8054611d8690614f23565b80601f0160208091040260200160405190810160405280929190818152602001828054611db290614f23565b8015611dff5780601f10611dd457610100808354040283529160200191611dff565b820191906000526020600020905b815481529060010190602001808311611de257829003601f168201915b505050505081565b600e60009054906101000a900473ffffffffffffffffffffffffffffffffffffffff1681565b611e3e611e38612304565b836123c5565b611e7d576040517f08c379a0000000000000000000000000000000000000000000000000000000008152600401611e74906150ea565b60405180910390fd5b611e8984848484612c23565b50505050565b601160009054906101000a900460ff1681565b6060611ead8261292a565b611eec576040517f08c379a0000000000000000000000000000000000000000000000000000000008152600401611ee390615f73565b60405180910390fd5b600d611ef783612c7f565b604051602001611f08929190615fea565b6040516020818303038152906040529050919050565b7f9f2df0fed2c77648de5860a4cc508cd0818c85b8b8a1ab4ceeef8d981c8956a681565b611f4b82610acf565b611f5481612753565b611f5e8383612848565b505050565b6000600560008473ffffffffffffffffffffffffffffffffffffffff1673ffffffffffffffffffffffffffffffffffffffff16815260200190815260200160002060008373ffffffffffffffffffffffffffffffffffffffff1673ffffffffffffffffffffffffffffffffffffffff16815260200190815260200160002060009054906101000a900460ff16905092915050565b60606120028361292a565b612041576040517f08c379a000000000000000000000000000000000000000000000000000000000815260040161203890616069565b60405180910390fd5b600073ffffffffffffffffffffffffffffffffffffffff16600e60009054906101000a900473ffffffffffffffffffffffffffffffffffffffff1673ffffffffffffffffffffffffffffffffffffffff16036120d2576040517f08c379a00000000000000000000000000000000000000000000000000000000081526004016120c9906160d5565b60405180910390fd5b6000600e60009054906101000a900473ffffffffffffffffffffffffffffffffffffffff1673ffffffffffffffffffffffffffffffffffffffff16634bd2d7f9846040518263ffffffff1660e01b815260040161212f9190616104565b600060405180830381865afa15801561214c573d6000803e3d6000fd5b505050506040513d6000823e3d601f19601f8201168201806040525081019061217591906161ea565b935050505060008151036121be576040517f08c379a00000000000000000000000000000000000000000000000000000000081526004016121b5906162b9565b60405180910390fd5b806121c885612c7f565b6040516020016121d99291906162d9565b60405160208183030381529060405291505092915050565b600060208351101561220d5761220683612d4d565b905061222f565b8261221783612235565b6000019081612226919061630c565b5060ff60001b90505b92915050565b6000819050919050565b60007f7965db0b000000000000000000000000000000000000000000000000000000007bffffffffffffffffffffffffffffffffffffffffffffffffffffffff1916827bffffffffffffffffffffffffffffffffffffffffffffffffffffffff191614806122b257506122b182612db5565b5b9050919050565b6122c28161292a565b612301576040517f08c379a00000000000000000000000000000000000000000000000000000000081526004016122f890615840565b60405180910390fd5b50565b600033905090565b816004600083815260200190815260200160002060006101000a81548173ffffffffffffffffffffffffffffffffffffffff021916908373ffffffffffffffffffffffffffffffffffffffff160217905550808273ffffffffffffffffffffffffffffffffffffffff1661237f83611517565b73ffffffffffffffffffffffffffffffffffffffff167f8c5be1e5ebec7d5bd14f71427d1e84f3dd0314c0f7b2291e5b200ac8c7c3b92560405160405180910390a45050565b6000806123d183611517565b90508073ffffffffffffffffffffffffffffffffffffffff168473ffffffffffffffffffffffffffffffffffffffff16148061241357506124128185611f63565b5b8061245157508373ffffffffffffffffffffffffffffffffffffffff1661243984610905565b73ffffffffffffffffffffffffffffffffffffffff16145b91505092915050565b8273ffffffffffffffffffffffffffffffffffffffff1661247a82611517565b73ffffffffffffffffffffffffffffffffffffffff16146124d0576040517f08c379a00000000000000000000000000000000000000000000000000000000081526004016124c790616450565b60405180910390fd5b600073ffffffffffffffffffffffffffffffffffffffff168273ffffffffffffffffffffffffffffffffffffffff160361253f576040517f08c379a0000000000000000000000000000000000000000000000000000000008152600401612536906164e2565b60405180910390fd5b61254c8383836001612e2f565b8273ffffffffffffffffffffffffffffffffffffffff1661256c82611517565b73ffffffffffffffffffffffffffffffffffffffff16146125c2576040517f08c379a00000000000000000000000000000000000000000000000000000000081526004016125b990616450565b60405180910390fd5b6004600082815260200190815260200160002060006101000a81549073ffffffffffffffffffffffffffffffffffffffff02191690556001600360008573ffffffffffffffffffffffffffffffffffffffff1673ffffffffffffffffffffffffffffffffffffffff168152602001908152602001600020600082825403925050819055506001600360008473ffffffffffffffffffffffffffffffffffffffff1673ffffffffffffffffffffffffffffffffffffffff16815260200190815260200160002060008282540192505081905550816002600083815260200190815260200160002060006101000a81548173ffffffffffffffffffffffffffffffffffffffff021916908373ffffffffffffffffffffffffffffffffffffffff160217905550808273ffffffffffffffffffffffffffffffffffffffff168473ffffffffffffffffffffffffffffffffffffffff167fddf252ad1be2c89b69c2b068fc378daa952ba7f163c4a11628f55a4df523b3ef60405160405180910390a461274e8383836001612f13565b505050565b6127648161275f612304565b612f19565b50565b6127718282611bd7565b612844576001600a600084815260200190815260200160002060000160008373ffffffffffffffffffffffffffffffffffffffff1673ffffffffffffffffffffffffffffffffffffffff16815260200190815260200160002060006101000a81548160ff0219169083151502179055506127e9612304565b73ffffffffffffffffffffffffffffffffffffffff168173ffffffffffffffffffffffffffffffffffffffff16837f2f8788117e7eff1d82e926ec794901d17c78024a50270940304540a733656f0d60405160405180910390a45b5050565b6128528282611bd7565b15612926576000600a600084815260200190815260200160002060000160008373ffffffffffffffffffffffffffffffffffffffff1673ffffffffffffffffffffffffffffffffffffffff16815260200190815260200160002060006101000a81548160ff0219169083151502179055506128cb612304565b73ffffffffffffffffffffffffffffffffffffffff168173ffffffffffffffffffffffffffffffffffffffff16837ff6391f5c32d9c69d2a47ea670b442974b53935d1edc7fd64eb21e047a839171b60405160405180910390a45b5050565b60008073ffffffffffffffffffffffffffffffffffffffff1661294c836129ca565b73ffffffffffffffffffffffffffffffffffffffff1614159050919050565b612985828260405180602001604052806000815250612f9e565b5050565b600061299c612996612ff9565b836130b0565b9050919050565b60008060006129b285856130f1565b915091506129bf81613142565b819250505092915050565b60006002600083815260200190815260200160002060009054906101000a900473ffffffffffffffffffffffffffffffffffffffff169050919050565b606060ff60001b8314612a2457612a1d836132a8565b9050612ab1565b818054612a3090614f23565b80601f0160208091040260200160405190810160405280929190818152602001828054612a5c90614f23565b8015612aa95780601f10612a7e57610100808354040283529160200191612aa9565b820191906000526020600020905b815481529060010190602001808311612a8c57829003601f168201915b505050505090505b92915050565b8173ffffffffffffffffffffffffffffffffffffffff168373ffffffffffffffffffffffffffffffffffffffff1603612b25576040517f08c379a0000000000000000000000000000000000000000000000000000000008152600401612b1c9061654e565b60405180910390fd5b80600560008573ffffffffffffffffffffffffffffffffffffffff1673ffffffffffffffffffffffffffffffffffffffff16815260200190815260200160002060008473ffffffffffffffffffffffffffffffffffffffff1673ffffffffffffffffffffffffffffffffffffffff16815260200190815260200160002060006101000a81548160ff0219169083151502179055508173ffffffffffffffffffffffffffffffffffffffff168373ffffffffffffffffffffffffffffffffffffffff167f17307eab39ab6107e8899845ad3d59bd9653f200f220920489ca2b5937696c3183604051612c169190614305565b60405180910390a3505050565b612c2e84848461245a565b612c3a8484848461331c565b612c79576040517f08c379a0000000000000000000000000000000000000000000000000000000008152600401612c70906165e0565b60405180910390fd5b50505050565b606060006001612c8e846134a3565b01905060008167ffffffffffffffff811115612cad57612cac614c86565b5b6040519080825280601f01601f191660200182016040528015612cdf5781602001600182028036833780820191505090505b509050600082602001820190505b600115612d42578080600190039150507f3031323334353637383961626364656600000000000000000000000000000000600a86061a8153600a8581612d3657612d35616600565b5b04945060008503612ced575b819350505050919050565b600080829050601f81511115612d9a57826040517f305a27a9000000000000000000000000000000000000000000000000000000008152600401612d9191906143b0565b60405180910390fd5b805181612da69061665f565b60001c1760001b915050919050565b60007f780e9d63000000000000000000000000000000000000000000000000000000007bffffffffffffffffffffffffffffffffffffffffffffffffffffffff1916827bffffffffffffffffffffffffffffffffffffffffffffffffffffffff19161480612e285750612e27826135f6565b5b9050919050565b612e3b848484846136d8565b600073ffffffffffffffffffffffffffffffffffffffff168473ffffffffffffffffffffffffffffffffffffffff161480612ea25750600073ffffffffffffffffffffffffffffffffffffffff168373ffffffffffffffffffffffffffffffffffffffff16145b612f0d57601160009054906101000a900460ff1680612ecd5750601160019054906101000a900460ff165b612f0c576040517f08c379a0000000000000000000000000000000000000000000000000000000008152600401612f0390616738565b60405180910390fd5b5b50505050565b50505050565b612f238282611bd7565b612f9a57612f3081613836565b612f3e8360001c6020613863565b604051602001612f4f9291906167f0565b6040516020818303038152906040526040517f08c379a0000000000000000000000000000000000000000000000000000000008152600401612f9191906143b0565b60405180910390fd5b5050565b612fa88383613a9f565b612fb5600084848461331c565b612ff4576040517f08c379a0000000000000000000000000000000000000000000000000000000008152600401612feb906165e0565b60405180910390fd5b505050565b60007f000000000000000000000000000000000000000000000000000000000000000073ffffffffffffffffffffffffffffffffffffffff163073ffffffffffffffffffffffffffffffffffffffff1614801561307557507f000000000000000000000000000000000000000000000000000000000000000046145b156130a2577f000000000000000000000000000000000000000000000000000000000000000090506130ad565b6130aa613cbc565b90505b90565b60006040517f190100000000000000000000000000000000000000000000000000000000000081528360028201528260228201526042812091505092915050565b60008060418351036131325760008060006020860151925060408601519150606086015160001a905061312687828585613d52565b9450945050505061313b565b60006002915091505b9250929050565b600060048111156131565761315561682a565b5b8160048111156131695761316861682a565b5b03156132a557600160048111156131835761318261682a565b5b8160048111156131965761319561682a565b5b036131d6576040517f08c379a00000000000000000000000000000000000000000000000000000000081526004016131cd906168a5565b60405180910390fd5b600260048111156131ea576131e961682a565b5b8160048111156131fd576131fc61682a565b5b0361323d576040517f08c379a000000000000000000000000000000000000000000000000000000000815260040161323490616911565b60405180910390fd5b600360048111156132515761325061682a565b5b8160048111156132645761326361682a565b5b036132a4576040517f08c379a000000000000000000000000000000000000000000000000000000000815260040161329b906169a3565b60405180910390fd5b5b50565b606060006132b583613e34565b90506000602067ffffffffffffffff8111156132d4576132d3614c86565b5b6040519080825280601f01601f1916602001820160405280156133065781602001600182028036833780820191505090505b5090508181528360208201528092505050919050565b600061333d8473ffffffffffffffffffffffffffffffffffffffff16613e84565b15613496578373ffffffffffffffffffffffffffffffffffffffff1663150b7a02613366612304565b8786866040518563ffffffff1660e01b81526004016133889493929190616a0d565b6020604051808303816000875af19250505080156133c457506040513d601f19601f820116820180604052508101906133c19190616a6e565b60015b613446573d80600081146133f4576040519150601f19603f3d011682016040523d82523d6000602084013e6133f9565b606091505b50600081510361343e576040517f08c379a0000000000000000000000000000000000000000000000000000000008152600401613435906165e0565b60405180910390fd5b805181602001fd5b63150b7a0260e01b7bffffffffffffffffffffffffffffffffffffffffffffffffffffffff1916817bffffffffffffffffffffffffffffffffffffffffffffffffffffffff19161491505061349b565b600190505b949350505050565b600080600090507a184f03e93ff9f4daa797ed6e38ed64bf6a1f0100000000000000008310613501577a184f03e93ff9f4daa797ed6e38ed64bf6a1f01000000000000000083816134f7576134f6616600565b5b0492506040810190505b6d04ee2d6d415b85acef8100000000831061353e576d04ee2d6d415b85acef8100000000838161353457613533616600565b5b0492506020810190505b662386f26fc10000831061356d57662386f26fc10000838161356357613562616600565b5b0492506010810190505b6305f5e1008310613596576305f5e100838161358c5761358b616600565b5b0492506008810190505b61271083106135bb5761271083816135b1576135b0616600565b5b0492506004810190505b606483106135de57606483816135d4576135d3616600565b5b0492506002810190505b600a83106135ed576001810190505b80915050919050565b60007f80ac58cd000000000000000000000000000000000000000000000000000000007bffffffffffffffffffffffffffffffffffffffffffffffffffffffff1916827bffffffffffffffffffffffffffffffffffffffffffffffffffffffff191614806136c157507f5b5e139f000000000000000000000000000000000000000000000000000000007bffffffffffffffffffffffffffffffffffffffffffffffffffffffff1916827bffffffffffffffffffffffffffffffffffffffffffffffffffffffff1916145b806136d157506136d082613ea7565b5b9050919050565b6136e484848484613f11565b6001811115613728576040517f08c379a000000000000000000000000000000000000000000000000000000000815260040161371f90616b0d565b60405180910390fd5b6000829050600073ffffffffffffffffffffffffffffffffffffffff168573ffffffffffffffffffffffffffffffffffffffff160361376f5761376a81613f17565b6137ae565b8373ffffffffffffffffffffffffffffffffffffffff168573ffffffffffffffffffffffffffffffffffffffff16146137ad576137ac8582613f60565b5b5b600073ffffffffffffffffffffffffffffffffffffffff168473ffffffffffffffffffffffffffffffffffffffff16036137f0576137eb816140cd565b61382f565b8473ffffffffffffffffffffffffffffffffffffffff168473ffffffffffffffffffffffffffffffffffffffff161461382e5761382d848261419e565b5b5b5050505050565b606061385c8273ffffffffffffffffffffffffffffffffffffffff16601460ff16613863565b9050919050565b6060600060028360026138769190616b2d565b6138809190616b6f565b67ffffffffffffffff81111561389957613898614c86565b5b6040519080825280601f01601f1916602001820160405280156138cb5781602001600182028036833780820191505090505b5090507f300000000000000000000000000000000000000000000000000000000000000081600081518110613903576139026155b4565b5b60200101907effffffffffffffffffffffffffffffffffffffffffffffffffffffffffffff1916908160001a9053507f780000000000000000000000000000000000000000000000000000000000000081600181518110613967576139666155b4565b5b60200101907effffffffffffffffffffffffffffffffffffffffffffffffffffffffffffff1916908160001a905350600060018460026139a79190616b2d565b6139b19190616b6f565b90505b6001811115613a51577f3031323334353637383961626364656600000000000000000000000000000000600f8616601081106139f3576139f26155b4565b5b1a60f81b828281518110613a0a57613a096155b4565b5b60200101907effffffffffffffffffffffffffffffffffffffffffffffffffffffffffffff1916908160001a905350600485901c945080613a4a90616ba3565b90506139b4565b5060008414613a95576040517f08c379a0000000000000000000000000000000000000000000000000000000008152600401613a8c90616c18565b60405180910390fd5b8091505092915050565b600073ffffffffffffffffffffffffffffffffffffffff168273ffffffffffffffffffffffffffffffffffffffff1603613b0e576040517f08c379a0000000000000000000000000000000000000000000000000000000008152600401613b0590616c84565b60405180910390fd5b613b178161292a565b15613b57576040517f08c379a0000000000000000000000000000000000000000000000000000000008152600401613b4e90616cf0565b60405180910390fd5b613b65600083836001612e2f565b613b6e8161292a565b15613bae576040517f08c379a0000000000000000000000000000000000000000000000000000000008152600401613ba590616cf0565b60405180910390fd5b6001600360008473ffffffffffffffffffffffffffffffffffffffff1673ffffffffffffffffffffffffffffffffffffffff16815260200190815260200160002060008282540192505081905550816002600083815260200190815260200160002060006101000a81548173ffffffffffffffffffffffffffffffffffffffff021916908373ffffffffffffffffffffffffffffffffffffffff160217905550808273ffffffffffffffffffffffffffffffffffffffff16600073ffffffffffffffffffffffffffffffffffffffff167fddf252ad1be2c89b69c2b068fc378daa952ba7f163c4a11628f55a4df523b3ef60405160405180910390a4613cb8600083836001612f13565b5050565b60007f8b73c3c69bb8fe3d512ecc4cf759cc79239f7b179b0ffacaa9a75d522b39400f7f00000000000000000000000000000000000000000000000000000000000000007f00000000000000000000000000000000000000000000000000000000000000004630604051602001613d37959493929190616d10565b60405160208183030381529060405280519060200120905090565b6000807f7fffffffffffffffffffffffffffffff5d576e7357a4501ddfe92f46681b20a08360001c1115613d8d576000600391509150613e2b565b600060018787878760405160008152602001604052604051613db29493929190616d7f565b6020604051602081039080840390855afa158015613dd4573d6000803e3d6000fd5b505050602060405103519050600073ffffffffffffffffffffffffffffffffffffffff168173ffffffffffffffffffffffffffffffffffffffff1603613e2257600060019250925050613e2b565b80600092509250505b94509492505050565b60008060ff8360001c169050601f811115613e7b576040517fb3512b0c00000000000000000000000000000000000000000000000000000000815260040160405180910390fd5b80915050919050565b6000808273ffffffffffffffffffffffffffffffffffffffff163b119050919050565b60007f01ffc9a7000000000000000000000000000000000000000000000000000000007bffffffffffffffffffffffffffffffffffffffffffffffffffffffff1916827bffffffffffffffffffffffffffffffffffffffffffffffffffffffff1916149050919050565b50505050565b6008805490506009600083815260200190815260200160002081905550600881908060018154018082558091505060019003906000526020600020016000909190919091505550565b60006001613f6d8461181f565b613f779190615967565b905060006007600084815260200190815260200160002054905081811461405c576000600660008673ffffffffffffffffffffffffffffffffffffffff1673ffffffffffffffffffffffffffffffffffffffff168152602001908152602001600020600084815260200190815260200160002054905080600660008773ffffffffffffffffffffffffffffffffffffffff1673ffffffffffffffffffffffffffffffffffffffff168152602001908152602001600020600084815260200190815260200160002081905550816007600083815260200190815260200160002081905550505b6007600084815260200190815260200160002060009055600660008573ffffffffffffffffffffffffffffffffffffffff1673ffffffffffffffffffffffffffffffffffffffff16815260200190815260200160002060008381526020019081526020016000206000905550505050565b600060016008805490506140e19190615967565b9050600060096000848152602001908152602001600020549050600060088381548110614111576141106155b4565b5b906000526020600020015490508060088381548110614133576141326155b4565b5b90600052602060002001819055508160096000838152602001908152602001600020819055506009600085815260200190815260200160002060009055600880548061418257614181616dc4565b5b6001900381819060005260206000200160009055905550505050565b60006141a98361181f565b905081600660008573ffffffffffffffffffffffffffffffffffffffff1673ffffffffffffffffffffffffffffffffffffffff168152602001908152602001600020600083815260200190815260200160002081905550806007600084815260200190815260200160002081905550505050565b6000819050919050565b6142308161421d565b82525050565b600060208201905061424b6000830184614227565b92915050565b6000604051905090565b600080fd5b600080fd5b60007fffffffff0000000000000000000000000000000000000000000000000000000082169050919050565b61429a81614265565b81146142a557600080fd5b50565b6000813590506142b781614291565b92915050565b6000602082840312156142d3576142d261425b565b5b60006142e1848285016142a8565b91505092915050565b60008115159050919050565b6142ff816142ea565b82525050565b600060208201905061431a60008301846142f6565b92915050565b600081519050919050565b600082825260208201905092915050565b60005b8381101561435a57808201518184015260208101905061433f565b60008484015250505050565b6000601f19601f8301169050919050565b600061438282614320565b61438c818561432b565b935061439c81856020860161433c565b6143a581614366565b840191505092915050565b600060208201905081810360008301526143ca8184614377565b905092915050565b6000819050919050565b6143e5816143d2565b81146143f057600080fd5b50565b600081359050614402816143dc565b92915050565b60006020828403121561441e5761441d61425b565b5b600061442c848285016143f3565b91505092915050565b600073ffffffffffffffffffffffffffffffffffffffff82169050919050565b600061446082614435565b9050919050565b61447081614455565b82525050565b600060208201905061448b6000830184614467565b92915050565b61449a81614455565b81146144a557600080fd5b50565b6000813590506144b781614491565b92915050565b600080604083850312156144d4576144d361425b565b5b60006144e2858286016144a8565b92505060206144f3858286016143f3565b9150509250929050565b614506816143d2565b82525050565b600060208201905061452160008301846144fd565b92915050565b6000806000606084860312156145405761453f61425b565b5b600061454e868287016144a8565b935050602061455f868287016144a8565b9250506040614570868287016143f3565b9150509250925092565b6145838161421d565b811461458e57600080fd5b50565b6000813590506145a08161457a565b92915050565b6000602082840312156145bc576145bb61425b565b5b60006145ca84828501614591565b91505092915050565b6145dc816142ea565b81146145e757600080fd5b50565b6000813590506145f9816145d3565b92915050565b6000602082840312156146155761461461425b565b5b6000614623848285016145ea565b91505092915050565b600080604083850312156146435761464261425b565b5b600061465185828601614591565b9250506020614662858286016144a8565b9150509250929050565b600061467782614455565b9050919050565b6146878161466c565b811461469257600080fd5b50565b6000813590506146a48161467e565b92915050565b6000602082840312156146c0576146bf61425b565b5b60006146ce84828501614695565b91505092915050565b6000602082840312156146ed576146ec61425b565b5b60006146fb848285016144a8565b91505092915050565b600080fd5b600080fd5b600080fd5b60008083601f84011261472957614728614704565b5b8235905067ffffffffffffffff81111561474657614745614709565b5b6020830191508360018202830111156147625761476161470e565b5b9250929050565b600080600080600080600060c0888a0312156147885761478761425b565b5b60006147968a828b016144a8565b97505060206147a78a828b016144a8565b96505060406147b88a828b016143f3565b95505060606147c98a828b016143f3565b94505060806147da8a828b016143f3565b93505060a088013567ffffffffffffffff8111156147fb576147fa614260565b5b6148078a828b01614713565b925092505092959891949750929550565b60008083601f84011261482e5761482d614704565b5b8235905067ffffffffffffffff81111561484b5761484a614709565b5b6020830191508360208202830111156148675761486661470e565b5b9250929050565b60008083601f84011261488457614883614704565b5b8235905067ffffffffffffffff8111156148a1576148a0614709565b5b6020830191508360208202830111156148bd576148bc61470e565b5b9250929050565b600080600080604085870312156148de576148dd61425b565b5b600085013567ffffffffffffffff8111156148fc576148fb614260565b5b61490887828801614818565b9450945050602085013567ffffffffffffffff81111561492b5761492a614260565b5b6149378782880161486e565b925092505092959194509250565b60008083601f84011261495b5761495a614704565b5b8235905067ffffffffffffffff81111561497857614977614709565b5b6020830191508360018202830111156149945761499361470e565b5b9250929050565b600080602083850312156149b2576149b161425b565b5b600083013567ffffffffffffffff8111156149d0576149cf614260565b5b6149dc85828601614945565b92509250509250929050565b600081519050919050565b600082825260208201905092915050565b6000819050602082019050919050565b614a1d816143d2565b82525050565b6000614a2f8383614a14565b60208301905092915050565b6000602082019050919050565b6000614a53826149e8565b614a5d81856149f3565b9350614a6883614a04565b8060005b83811015614a99578151614a808882614a23565b9750614a8b83614a3b565b925050600181019050614a6c565b5085935050505092915050565b60006020820190508181036000830152614ac08184614a48565b905092915050565b60007fff0000000000000000000000000000000000000000000000000000000000000082169050919050565b614afd81614ac8565b82525050565b600060e082019050614b18600083018a614af4565b8181036020830152614b2a8189614377565b90508181036040830152614b3e8188614377565b9050614b4d60608301876144fd565b614b5a6080830186614467565b614b6760a0830185614227565b81810360c0830152614b798184614a48565b905098975050505050505050565b60008060408385031215614b9e57614b9d61425b565b5b6000614bac858286016144a8565b9250506020614bbd858286016145ea565b9150509250929050565b60008060408385031215614bde57614bdd61425b565b5b6000614bec858286016143f3565b9250506020614bfd858286016143f3565b9150509250929050565b6000819050919050565b6000614c2c614c27614c2284614435565b614c07565b614435565b9050919050565b6000614c3e82614c11565b9050919050565b6000614c5082614c33565b9050919050565b614c6081614c45565b82525050565b6000602082019050614c7b6000830184614c57565b92915050565b600080fd5b7f4e487b7100000000000000000000000000000000000000000000000000000000600052604160045260246000fd5b614cbe82614366565b810181811067ffffffffffffffff82111715614cdd57614cdc614c86565b5b80604052505050565b6000614cf0614251565b9050614cfc8282614cb5565b919050565b600067ffffffffffffffff821115614d1c57614d1b614c86565b5b614d2582614366565b9050602081019050919050565b82818337600083830152505050565b6000614d54614d4f84614d01565b614ce6565b905082815260208101848484011115614d7057614d6f614c81565b5b614d7b848285614d32565b509392505050565b600082601f830112614d9857614d97614704565b5b8135614da8848260208601614d41565b91505092915050565b60008060008060808587031215614dcb57614dca61425b565b5b6000614dd9878288016144a8565b9450506020614dea878288016144a8565b9350506040614dfb878288016143f3565b925050606085013567ffffffffffffffff811115614e1c57614e1b614260565b5b614e2887828801614d83565b91505092959194509250565b60008060408385031215614e4b57614e4a61425b565b5b6000614e59858286016144a8565b9250506020614e6a858286016144a8565b9150509250929050565b600067ffffffffffffffff82169050919050565b614e9181614e74565b8114614e9c57600080fd5b50565b600081359050614eae81614e88565b92915050565b60008060408385031215614ecb57614eca61425b565b5b6000614ed9858286016143f3565b9250506020614eea85828601614e9f565b9150509250929050565b7f4e487b7100000000000000000000000000000000000000000000000000000000600052602260045260246000fd5b60006002820490506001821680614f3b57607f821691505b602082108103614f4e57614f4d614ef4565b5b50919050565b7f4552433732313a20617070726f76616c20746f2063757272656e74206f776e6560008201527f7200000000000000000000000000000000000000000000000000000000000000602082015250565b6000614fb060218361432b565b9150614fbb82614f54565b604082019050919050565b60006020820190508181036000830152614fdf81614fa3565b9050919050565b7f4552433732313a20617070726f76652063616c6c6572206973206e6f7420746f60008201527f6b656e206f776e6572206f7220617070726f76656420666f7220616c6c000000602082015250565b6000615042603d8361432b565b915061504d82614fe6565b604082019050919050565b6000602082019050818103600083015261507181615035565b9050919050565b7f4552433732313a2063616c6c6572206973206e6f7420746f6b656e206f776e6560008201527f72206f7220617070726f76656400000000000000000000000000000000000000602082015250565b60006150d4602d8361432b565b91506150df82615078565b604082019050919050565b60006020820190508181036000830152615103816150c7565b9050919050565b7f7472616e7366657273456e61626c65643a206475706c69636174650000000000600082015250565b6000615140601b8361432b565b915061514b8261510a565b602082019050919050565b6000602082019050818103600083015261516f81615133565b9050919050565b7f455243373231456e756d657261626c653a206f776e657220696e646578206f7560008201527f74206f6620626f756e6473000000000000000000000000000000000000000000602082015250565b60006151d2602b8361432b565b91506151dd82615176565b604082019050919050565b60006020820190508181036000830152615201816151c5565b9050919050565b7f7265673a20616464726573732830290000000000000000000000000000000000600082015250565b600061523e600f8361432b565b915061524982615208565b602082019050919050565b6000602082019050818103600083015261526d81615231565b9050919050565b7f7265673a206475706c6963617465000000000000000000000000000000000000600082015250565b60006152aa600e8361432b565b91506152b582615274565b602082019050919050565b600060208201905081810360008301526152d98161529d565b9050919050565b7f416363657373436f6e74726f6c3a2063616e206f6e6c792072656e6f756e636560008201527f20726f6c657320666f722073656c660000000000000000000000000000000000602082015250565b600061533c602f8361432b565b9150615347826152e0565b604082019050919050565b6000602082019050818103600083015261536b8161532f565b9050919050565b7f6e65775369676e65723a20616464726573732830290000000000000000000000600082015250565b60006153a860158361432b565b91506153b382615372565b602082019050919050565b600060208201905081810360008301526153d78161539b565b9050919050565b7f6e65775369676e65723a206475706c6963617465000000000000000000000000600082015250565b600061541460148361432b565b915061541f826153de565b602082019050919050565b6000602082019050818103600083015261544381615407565b9050919050565b7f746f6b656e49643a2063616e6e6f742062652030000000000000000000000000600082015250565b600061548060148361432b565b915061548b8261544a565b602082019050919050565b600060208201905081810360008301526154af81615473565b9050919050565b7f746f6b656e49643a20616c726561647920657869737473000000000000000000600082015250565b60006154ec60178361432b565b91506154f7826154b6565b602082019050919050565b6000602082019050818103600083015261551b816154df565b9050919050565b7f455243373231456e756d657261626c653a20676c6f62616c20696e646578206f60008201527f7574206f6620626f756e64730000000000000000000000000000000000000000602082015250565b600061557e602c8361432b565b915061558982615522565b604082019050919050565b600060208201905081810360008301526155ad81615571565b9050919050565b7f4e487b7100000000000000000000000000000000000000000000000000000000600052603260045260246000fd5b7f7369676e61747572652065787069726564000000000000000000000000000000600082015250565b600061561960118361432b565b9150615624826155e3565b602082019050919050565b600060208201905081810360008301526156488161560c565b9050919050565b7f66726f6d206973206e6f74206f776e6572000000000000000000000000000000600082015250565b600061568560118361432b565b91506156908261564f565b602082019050919050565b600060208201905081810360008301526156b481615678565b9050919050565b600060c0820190506156d06000830189614227565b6156dd6020830188614467565b6156ea6040830187614467565b6156f760608301866144fd565b61570460808301856144fd565b61571160a08301846144fd565b979650505050505050565b7f7472616e7366657220616c72656164792066756c66696c6c6564000000000000600082015250565b6000615752601a8361432b565b915061575d8261571c565b602082019050919050565b6000602082019050818103600083015261578181615745565b9050919050565b7f696e76616c6964207369676e6174757265000000000000000000000000000000600082015250565b60006157be60118361432b565b91506157c982615788565b602082019050919050565b600060208201905081810360008301526157ed816157b1565b9050919050565b7f4552433732313a20696e76616c696420746f6b656e2049440000000000000000600082015250565b600061582a60188361432b565b9150615835826157f4565b602082019050919050565b600060208201905081810360008301526158598161581d565b9050919050565b7f746f3a20656d7074790000000000000000000000000000000000000000000000600082015250565b600061589660098361432b565b91506158a182615860565b602082019050919050565b600060208201905081810360008301526158c581615889565b9050919050565b7f746f6b656e49647320616e6420746f206c656e677468206d69736d6174636800600082015250565b6000615902601f8361432b565b915061590d826158cc565b602082019050919050565b60006020820190508181036000830152615931816158f5565b9050919050565b7f4e487b7100000000000000000000000000000000000000000000000000000000600052601160045260246000fd5b6000615972826143d2565b915061597d836143d2565b925082820390508181111561599557615994615938565b5b92915050565b60006040820190506159b060008301856144fd565b6159bd60208301846144fd565b9392505050565b7f4552433732313a2061646472657373207a65726f206973206e6f74206120766160008201527f6c6964206f776e65720000000000000000000000000000000000000000000000602082015250565b6000615a2060298361432b565b9150615a2b826159c4565b604082019050919050565b60006020820190508181036000830152615a4f81615a13565b9050919050565b7f6e6577426173653a20656d707479000000000000000000000000000000000000600082015250565b6000615a8c600e8361432b565b9150615a9782615a56565b602082019050919050565b60006020820190508181036000830152615abb81615a7f565b9050919050565b600081905092915050565b60008190508160005260206000209050919050565b60008154615aef81614f23565b615af98186615ac2565b94506001821660008114615b145760018114615b2957615b5c565b60ff1983168652811515820286019350615b5c565b615b3285615acd565b60005b83811015615b5457815481890152600182019150602081019050615b35565b838801955050505b50505092915050565b6000615b718284615ae2565b915081905092915050565b6000615b888385615ac2565b9350615b95838584614d32565b82840190509392505050565b6000615bae828486615b7c565b91508190509392505050565b7f6e6577426173653a206475706c69636174650000000000000000000000000000600082015250565b6000615bf060128361432b565b9150615bfb82615bba565b602082019050919050565b60006020820190508181036000830152615c1f81615be3565b9050919050565b600082905092915050565b60006020601f8301049050919050565b600082821b905092915050565b600060088302615c7e7fffffffffffffffffffffffffffffffffffffffffffffffffffffffffffffffff82615c41565b615c888683615c41565b95508019841693508086168417925050509392505050565b6000615cbb615cb6615cb1846143d2565b614c07565b6143d2565b9050919050565b6000819050919050565b615cd583615ca0565b615ce9615ce182615cc2565b848454615c4e565b825550505050565b600090565b615cfe615cf1565b615d09818484615ccc565b505050565b5b81811015615d2d57615d22600082615cf6565b600181019050615d0f565b5050565b601f821115615d7257615d4381615acd565b615d4c84615c31565b81016020851015615d5b578190505b615d6f615d6785615c31565b830182615d0e565b50505b505050565b600082821c905092915050565b6000615d9560001984600802615d77565b1980831691505092915050565b6000615dae8383615d84565b9150826002028217905092915050565b615dc88383615c26565b67ffffffffffffffff811115615de157615de0614c86565b5b615deb8254614f23565b615df6828285615d31565b6000601f831160018114615e255760008415615e13578287013590505b615e1d8582615da2565b865550615e85565b601f198416615e3386615acd565b60005b82811015615e5b57848901358255600182019150602085019450602081019050615e36565b86831015615e785784890135615e74601f891682615d84565b8355505b6001600288020188555050505b50505050505050565b6000615e9a838561432b565b9350615ea7838584614d32565b615eb083614366565b840190509392505050565b60006020820190508181036000830152615ed6818486615e8e565b90509392505050565b6000615eea826143d2565b91507fffffffffffffffffffffffffffffffffffffffffffffffffffffffffffffffff8203615f1c57615f1b615938565b5b600182019050919050565b7f4c6f72654e46543a206e6f6e6578697374656e7420746f6b656e000000000000600082015250565b6000615f5d601a8361432b565b9150615f6882615f27565b602082019050919050565b60006020820190508181036000830152615f8c81615f50565b9050919050565b6000615f9e82614320565b615fa88185615ac2565b9350615fb881856020860161433c565b80840191505092915050565b7f2e6a736f6e000000000000000000000000000000000000000000000000000000815250565b6000615ff68285615ae2565b91506160028284615f93565b915061600d82615fc4565b6005820191508190509392505050565b7f6e6f20746f6b656e000000000000000000000000000000000000000000000000600082015250565b600061605360088361432b565b915061605e8261601d565b602082019050919050565b6000602082019050818103600083015261608281616046565b9050919050565b7f6e6f207265676973747279000000000000000000000000000000000000000000600082015250565b60006160bf600b8361432b565b91506160ca82616089565b602082019050919050565b600060208201905081810360008301526160ee816160b2565b9050919050565b6160fe81614e74565b82525050565b600060208201905061611960008301846160f5565b92915050565b60008151905061612e8161457a565b92915050565b60008151905061614381614e88565b92915050565b600067ffffffffffffffff82111561616457616163614c86565b5b61616d82614366565b9050602081019050919050565b600061618d61618884616149565b614ce6565b9050828152602081018484840111156161a9576161a8614c81565b5b6161b484828561433c565b509392505050565b600082601f8301126161d1576161d0614704565b5b81516161e184826020860161617a565b91505092915050565b600080600080608085870312156162045761620361425b565b5b60006162128782880161611f565b945050602061622387828801616134565b935050604061623487828801616134565b925050606085015167ffffffffffffffff81111561625557616254614260565b5b616261878288016161bc565b91505092959194509250565b7f65706f6368206e6f7420666f756e640000000000000000000000000000000000600082015250565b60006162a3600f8361432b565b91506162ae8261626d565b602082019050919050565b600060208201905081810360008301526162d281616296565b9050919050565b60006162e58285615f93565b91506162f18284615f93565b91506162fc82615fc4565b6005820191508190509392505050565b61631582614320565b67ffffffffffffffff81111561632e5761632d614c86565b5b6163388254614f23565b616343828285615d31565b600060209050601f8311600181146163765760008415616364578287015190505b61636e8582615da2565b8655506163d6565b601f19841661638486615acd565b60005b828110156163ac57848901518255600182019150602085019450602081019050616387565b868310156163c957848901516163c5601f891682615d84565b8355505b6001600288020188555050505b505050505050565b7f4552433732313a207472616e736665722066726f6d20696e636f72726563742060008201527f6f776e6572000000000000000000000000000000000000000000000000000000602082015250565b600061643a60258361432b565b9150616445826163de565b604082019050919050565b600060208201905081810360008301526164698161642d565b9050919050565b7f4552433732313a207472616e7366657220746f20746865207a65726f2061646460008201527f7265737300000000000000000000000000000000000000000000000000000000602082015250565b60006164cc60248361432b565b91506164d782616470565b604082019050919050565b600060208201905081810360008301526164fb816164bf565b9050919050565b7f4552433732313a20617070726f766520746f2063616c6c657200000000000000600082015250565b600061653860198361432b565b915061654382616502565b602082019050919050565b600060208201905081810360008301526165678161652b565b9050919050565b7f4552433732313a207472616e7366657220746f206e6f6e20455243373231526560008201527f63656976657220696d706c656d656e7465720000000000000000000000000000602082015250565b60006165ca60328361432b565b91506165d58261656e565b604082019050919050565b600060208201905081810360008301526165f9816165bd565b9050919050565b7f4e487b7100000000000000000000000000000000000000000000000000000000600052601260045260246000fd5b600081519050919050565b6000819050602082019050919050565b6000616656825161421d565b80915050919050565b600061666a8261662f565b826166748461663a565b905061667f8161664a565b925060208210156166bf576166ba7fffffffffffffffffffffffffffffffffffffffffffffffffffffffffffffffff83602003600802615c41565b831692505b5050919050565b7f7472616e7366657273206172652064697361626c65642c20757365207472616e60008201527f73666572576974685369676e6174757265000000000000000000000000000000602082015250565b600061672260318361432b565b915061672d826166c6565b604082019050919050565b6000602082019050818103600083015261675181616715565b9050919050565b7f416363657373436f6e74726f6c3a206163636f756e7420000000000000000000600082015250565b600061678e601783615ac2565b915061679982616758565b601782019050919050565b7f206973206d697373696e6720726f6c6520000000000000000000000000000000600082015250565b60006167da601183615ac2565b91506167e5826167a4565b601182019050919050565b60006167fb82616781565b91506168078285615f93565b9150616812826167cd565b915061681e8284615f93565b91508190509392505050565b7f4e487b7100000000000000000000000000000000000000000000000000000000600052602160045260246000fd5b7f45434453413a20696e76616c6964207369676e61747572650000000000000000600082015250565b600061688f60188361432b565b915061689a82616859565b602082019050919050565b600060208201905081810360008301526168be81616882565b9050919050565b7f45434453413a20696e76616c6964207369676e6174757265206c656e67746800600082015250565b60006168fb601f8361432b565b9150616906826168c5565b602082019050919050565b6000602082019050818103600083015261692a816168ee565b9050919050565b7f45434453413a20696e76616c6964207369676e6174757265202773272076616c60008201527f7565000000000000000000000000000000000000000000000000000000000000602082015250565b600061698d60228361432b565b915061699882616931565b604082019050919050565b600060208201905081810360008301526169bc81616980565b9050919050565b600082825260208201905092915050565b60006169df8261662f565b6169e981856169c3565b93506169f981856020860161433c565b616a0281614366565b840191505092915050565b6000608082019050616a226000830187614467565b616a2f6020830186614467565b616a3c60408301856144fd565b8181036060830152616a4e81846169d4565b905095945050505050565b600081519050616a6881614291565b92915050565b600060208284031215616a8457616a8361425b565b5b6000616a9284828501616a59565b91505092915050565b7f455243373231456e756d657261626c653a20636f6e736563757469766520747260008201527f616e7366657273206e6f7420737570706f727465640000000000000000000000602082015250565b6000616af760358361432b565b9150616b0282616a9b565b604082019050919050565b60006020820190508181036000830152616b2681616aea565b9050919050565b6000616b38826143d2565b9150616b43836143d2565b9250828202616b51816143d2565b91508282048414831517616b6857616b67615938565b5b5092915050565b6000616b7a826143d2565b9150616b85836143d2565b9250828201905080821115616b9d57616b9c615938565b5b92915050565b6000616bae826143d2565b915060008203616bc157616bc0615938565b5b600182039050919050565b7f537472696e67733a20686578206c656e67746820696e73756666696369656e74600082015250565b6000616c0260208361432b565b9150616c0d82616bcc565b602082019050919050565b60006020820190508181036000830152616c3181616bf5565b9050919050565b7f4552433732313a206d696e7420746f20746865207a65726f2061646472657373600082015250565b6000616c6e60208361432b565b9150616c7982616c38565b602082019050919050565b60006020820190508181036000830152616c9d81616c61565b9050919050565b7f4552433732313a20746f6b656e20616c7265616479206d696e74656400000000600082015250565b6000616cda601c8361432b565b9150616ce582616ca4565b602082019050919050565b60006020820190508181036000830152616d0981616ccd565b9050919050565b600060a082019050616d256000830188614227565b616d326020830187614227565b616d3f6040830186614227565b616d4c60608301856144fd565b616d596080830184614467565b9695505050505050565b600060ff82169050919050565b616d7981616d63565b82525050565b6000608082019050616d946000830187614227565b616da16020830186616d70565b616dae6040830185614227565b616dbb6060830184614227565b95945050505050565b7f4e487b7100000000000000000000000000000000000000000000000000000000600052603160045260246000fdfea2646970667358221220bf06d0ed2b474829ca10111f8f531be998d244d197da5b26cbb8500c39865ee464736f6c63430008120033","linkReferences":{}},"methodIdentifiers":{"DEFAULT_ADMIN_ROLE()":"a217fddf","MINTER_ROLE()":"d5391393","REGISTRY_ROLE()":"42f1e879","TRANSFER_TYPEHASH()":"00bf26f4","approve(address,uint256)":"095ea7b3","backendSigner()":"65d65e86","balanceOf(address)":"70a08231","baseUriEpoch()":"a4b6db75","batchMint(address[],uint256[])":"68573107","completedTransfers(bytes32)":"927dd240","eip712Domain()":"84b0196e","emitBatchMetadataUpdate(uint256,uint256)":"a4830114","getApproved(uint256)":"081812fc","getRoleAdmin(bytes32)":"248a9ca3","grantRole(bytes32,address)":"2f2ff15d","hasRole(bytes32,address)":"91d14854","isApprovedForAll(address,address)":"e985e9c5","loreRegistry()":"ab53db73","mint(address,uint256)":"40c10f19","name()":"06fdde03","ownerOf(uint256)":"6352211e","renounceRole(bytes32,address)":"36568abe","revokeRole(bytes32,address)":"d547741f","safeTransferFrom(address,address,uint256)":"42842e0e","safeTransferFrom(address,address,uint256,bytes)":"b88d4fde","setApprovalForAll(address,bool)":"a22cb465","setBackendSigner(address)":"36f95670","setBaseUriEpoch(string)":"79b06f44","setLoreRegistry(address)":"32371c89","setTransfersEnabled(bool)":"26b9ce13","supportsInterface(bytes4)":"01ffc9a7","symbol()":"95d89b41","tokenByIndex(uint256)":"4f6ccce7","tokenOfOwnerByIndex(address,uint256)":"2f745c59","tokenURI(uint256)":"c87b56dd","tokenURIAtEpoch(uint256,uint64)":"f45110d4","tokensOfOwner(address)":"8462151c","totalSupply()":"18160ddd","transferFrom(address,address,uint256)":"23b872dd","transferWithSignature(address,address,uint256,uint256,uint256,bytes)":"50a15a25","transfersEnabled()":"bef97c87"},"id":40}